:0400000054EF00F0C9
:100008002082FACF01F0FBCF02F0E9CF03F0EACF6C
:1000180004F0E1CF05F0E2CF06F0D9CF07F0DACF50
:1000280008F0F3CF09F0F4CF0AF0F6CF0BF0F7CFD2
:100038000CF0F8CF0DF0F5CF0EF020C00FF021C076
:1000480010F022C011F023C012F0F2BAF2A402D0CC
:1000580086EC00F012C023F011C022F010C021F08D
:100068000FC020F00EC0F5FF0DC0F8FF0CC0F7FF61
:100078000BC0F6FF0AC0F4FF09C0F3FF08C0DAFF9F
:1000880007C0D9FF06C0E2FF05C0E1FF04C0EAFFD0
:1000980003C0E9FF02C0FBFF01C0FAFF2092110074
:1000A800ECEF00F019041A10D8A412D0D8901E341E
:1000B8001E6E1F341F6E19C013F0FF0E146E132A24
:1000C80002D0D8901436132EFCD71450896E120023
:1000D800010E1EC013F01FC014F0D890133614364A
:1000E80013101E6E14501F6E19C013F0FF0E146EFD
:1000F800132A02D0D8901436132EFCD714501E1091
:10010800896E1200F2941DC0D6FF1B501C10D8B483
:100118000CD001D80AD00500FA6E1B50FD6E1C5099
:10012800FE6EF850FF6EFA501200FA0E17181810EB
:10013800D8A40AD0000E186E000E176E010E1524F2
:10014800156E000E1620166E010E1724176E000E7F
:100158001820186E1200000E8D6E000E8C6E000EA8
:10016800896E000E8A6E000E8B6E070E966E000E5C
:10017800926E9368946895680F013B69FC0E3A6F1C
:100188003F0E396F070E3C6F2F0E386F000E616EF1
:10019800F18E120016EC01F0F28EF28C1504161096
:1001A800D8A4FCD7090E19181A10D8A404D0000E28
:1001B8001A6E010E196E56EC00F0010E1924196E14
:1001C800000E1A201A6E000E166E000E156EE6D777
:1001D8005A0EF66E020EF76E000EF86E0900F5CF95
:1001E8001EF00900F5CF1FF01A6A196A186A176A13
:1001F800166A156A20902092000EF86E0001CEEF64
:1002080000F0000ED76EC20ED66EC20E1D6EF294AE
:10021800F28A5C0E136E020E146E26EC01F0D20EFA
:10022800D56E12002BEC01F0AFEC00F01FEC01F0E2
:1002380005EC01F01200300ED36E040ED26E000EE3
:100248009B6E120013C01BF014C01CF01200D09E4D
:060258001200FF0012007D
:020000040020DA
:08000000FFFFFFFFFFFFFFFF00
:020000040030CA
:0E000000FF281F3CFFBF85FF0FC00FE00F4021
:00000001FF
