:0400000054EF00F0C9
:100008003C82FACF19F0FBCF1AF0E9CF1BF0EACF08
:100018001CF0E1CF1DF0E2CF1EF0D9CF1FF0DACFF0
:1000280020F0F3CF21F0F4CF22F0F6CF23F0F7CF72
:1000380024F0F8CF25F0F5CF26F03CC027F03DC0DE
:1000480028F03EC029F03FC02AF0F2BAF2A402D04C
:10005800E3EC00F02AC03FF029C03EF028C03DF094
:1000680027C03CF026C0F5FF25C0F8FF24C0F7FFE5
:1000780023C0F6FF22C0F4FF21C0F3FF20C0DAFF3F
:100088001FC0D9FF1EC0E2FF1DC0E1FF1CC0EAFF70
:100098001BC0E9FF1AC0FBFF19C0FAFF3C92110010
:1000A800C6EF00F017041810D8A412D0D89037342F
:1000B800376E3834386E17C02BF0FF0E2C6E2B2A93
:1000C80002D0D8902C362B2EFCD72C50896E1200DB
:1000D800010E37C02BF038C02CF0D8902B362C36B8
:1000E8002B10376E2C50386E17C02BF0FF0E2C6E6D
:1000F8002B2A02D0D8902C362B2EFCD72C50371018
:10010800896E1200000E8D6E000E8C6E000E896EC8
:10011800000E8A6E000E8B6E070E966E000E926EA3
:10012800000E936E000E946E95680F013B69FC0EED
:100138003A6F3F0E396F070E3C6F2F0E386F000E67
:10014800616EF18E12000EEC01F0F28EF28CFA0E56
:1001580015181610D8A4FBD7090E17181810D8A40C
:1001680004D0000E186E010E176E56EC00F0010E4A
:100178001724176E000E1820186E000E166E000E4B
:10018800156EE5D73C0EF66E020EF76E000EF86E91
:1001980000EE2DF010EE0CF00900F5CFEEFFE55063
:1001A800E150FAE100EE01F0180EEE6AE806FDE112
:1001B8003C903C92000EF86E0001A7EF00F0F2941C
:1001C8003BC0D6FF39503A10D8B40CD001D80AD069
:1001D8000500FA6E3950FD6E3A50FE6EF850FF6E0B
:1001E800FA501200154A162A114A122A134A142ADA
:1001F8001200000ED76E060ED66E060E3B6EF294F7
:10020800F28A560E2B6E020E2C6E24EC01F0D00EE4
:10021800D56E120029EC01F086EC00F017EC01F025
:10022800FDEC00F01200300ED36E040ED26E000EFC
:100238009B6E1200C0F9A4B0999282F88090FF00DA
:100248002BC039F02CC03AF01200D09E12001200D8
:020000040020DA
:08000000FFFFFFFFFFFFFFFF00
:020000040030CA
:0E000000FF281F3CFFBF85FF0FC00FE00F4021
:00000001FF
