:0400000054EF00F0C9
:100008004082FACF01F0FBCF02F0E9CF03F0EACF4C
:1000180004F0E1CF05F0E2CF06F0D9CF07F0DACF50
:1000280008F0F3CF09F0F4CF0AF0F6CF0BF0F7CFD2
:100038000CF0F8CF0DF0F5CF0EF040C00FF041C036
:1000480010F042C011F043C012F0F2BAF2A402D08C
:10005800D4EC01F012C043F011C042F010C041F0DE
:100068000FC040F00EC0F5FF0DC0F8FF0CC0F7FF41
:100078000BC0F6FF0AC0F4FF09C0F3FF08C0DAFF9F
:1000880007C0D9FF06C0E2FF05C0E1FF04C0EAFFD0
:1000980003C0E9FF02C0FBFF01C0FAFF4092110054
:1000A800B7EF01F029C01BF02AC01CF0000E1E6E2D
:1000B8000A0E1D6E5EEC01F01B50286E000E166EC7
:1000C8000A0E156E29C013F02AC014F01CEC01F0BA
:1000D80013C01BF014C01CF0000E1E6E0A0E1D6E1D
:1000E8005EEC01F01B50276E000E166E640E156E46
:1000F80029C013F02AC014F01CEC01F013C01BF047
:1001080014C01CF0000E1E6E0A0E1D6E5EEC01F08F
:100118001B50266E29C013F02AC014F0030E166E69
:10012800E80E156E1CEC01F01350256E000E2C6EB7
:10013800000E2B6E2CBE06D02C500AE1330E2B5C21
:10014800D8B006D02E50BBEC00F02B4A2C2AF2D7A0
:10015800294A2A2A2ABE1200100E295C270E2A587C
:10016800D8A01200000E2A6E000E296E1200136E1F
:100178001350D8A414D08A68000E8B6E39C08BFF38
:100188002550010D2F0EF324D96E000EF420DA6EDF
:10019800DF508A6EA60EE82EFED700D0132A13046D
:1001A800D8A414D08A68000E8B6E3AC08BFF2650F4
:1001B800010D2F0EF324D96E000EF420DA6EDF50F5
:1001C8008A6EA60EE82EFED700D0132A020E131848
:1001D800D8A414D08A68000E8B6E3BC08BFF2750C2
:1001E800010D2F0EF324D96E000EF420DA6EDF50C5
:1001F8008A6EA60EE82EFED700D0132A030E131817
:10020800D8A412008A68000E8B6E3CC08BFF285061
:10021800010D2F0EF324D96E000EF420DA6EDF5094
:100228008A6EA60EE82EFED700D0000E136E1200BE
:10023800000E186E16AE06D0156C161ED8B0162A0B
:10024800010E186E14AE06D0136C141ED8B0142A02
:10025800010E181A000E1A6E000E196E155016109F
:10026800D8B41CD0010E176E04D0D89015361636A7
:10027800172A16AEFAD7D89019361A361550135CC5
:1002880016501458D8A005D01550135E1650145A9D
:100298001980D89016321532172EEDD71850D8B4C9
:1002A80004D0196C1A1ED8B01A2A19C013F01AC033
:1002B80014F01200000E206E1CAE06D01B6C1C1E23
:1002C800D8B01C2A010E206E1EAE04D01D6C1E1E56
:1002D800D8B01E2A1D501E10D8B418D0010E1F6E9B
:1002E80004D0D8901D361E361F2A1EAEFAD71D50D0
:1002F8001B5C1E501C58D8A004D01D501B5E1E50FD
:100308001C5AD8901E321D321F2EF1D72050D8B457
:1003180004D01B6C1C1ED8B01C2A1BC01BF01CC0B0
:100328001CF01200000E8D6E000E8C6E000E896E91
:10033800000E8A6E000E8B6E070E966EEF0E926E92
:10034800000E936EF00E946E95680F013B69FC0EDB
:100358003A6F3F0E396F070E3C6F2F0E386F000E45
:10036800616EF18E1200020EF66E040EF76E000E2C
:10037800F86E00EE2FF010EE0EF00900F5CFEEFF4C
:10038800E550E150FAE100EE21F00E0EEE6AE806C3
:10039800FDE140904092000EF86E00010FEF02F070
:1003A800F2943FC0D6FF3D503E10D8B4120001D899
:1003B80012000500FA6E3D50FD6E3E50FE6EF8507C
:1003C800FF6EFA501200000ED76E830ED66E830EA3
:1003D8003F6EF294F28A360E136E040E146E14EC0D
:1003E80002F0D10ED56E120019EC02F096EC01F075
:1003F80008EC02F0E7EC01F01200C0F9A4B0999201
:1004080082F8809008040201300ED36E040ED26E7A
:10041800000E9B6E1200F8EC01F056EC00F0FDD7D0
:1004280013C03DF014C03EF01200D09E120012001E
:020000040020DA
:08000000FFFFFFFFFFFFFFFF00
:020000040030CA
:0E000000FF281F3CFFBF85FF0FC00FE00F4021
:00000001FF
