:040000006AEF00F0B3
:100008004D82FACF28F0FBCF29F0E9CF2AF0EACFCA
:100018002BF0E1CF2CF0E2CF2DF0D9CF2EF0DACFB4
:100028002FF0F3CF30F0F4CF31F0F6CF32F0F7CF36
:1000380033F0F8CF34F0F5CF35F04DC036F04EC080
:1000480037F04FC038F050C039F0F2AC19D09DB835
:100058009EA808D001D814D00500FA6E4950FD6E4C
:100068004A500AD09DBA9EAA0BD001D809D00500E3
:10007800FA6E4750FD6E4850FE6EFF6AFA50120045
:1000880039C050F038C04FF037C04EF036C04DF090
:1000980035C0F5FF34C0F8FF33C0F7FF32C0F6FFB4
:1000A80031C0F4FF30C0F3FF2FC0DAFF2EC0D9FFF4
:1000B8002DC0E2FF2CC0E1FF2BC0EAFF2AC0E9FFF8
:1000C80029C0FBFF28C0FAFF4D921100DFEF09F0AD
:101000000037000007D00001010E9027000E912349
:10101000000E922390C0F6FF91C0F7FF92C0F8FF38
:101020000800F550200AD8B4EED790C0F6FF91C062
:10103000F7FF92C0F8FF0800F550090AD8B4E3D7CB
:10104000000E0001976F000E966F000E956F90C016
:10105000F6FF91C0F7FF92C0F8FF0800F5502D0A87
:10106000D8A402D0952B2BD090C0F6FF91C0F7FFEB
:1010700092C0F8FF0800F5502B0AD8A426D01FD044
:1010800096C03AF097C03BF0000E3D6E0A0E3C6EE3
:10109000E6EC0AF090C0F6FF91C0F7FF92C0F8FFAF
:1010A0000800F5500001936F946B3A5093273B5022
:1010B0009423D00E9325966FFF0E9421976F010E07
:1010C0009027000E9123000E922390C0F6FF91C04E
:1010D000F7FF92C0F8FF0800F5500BEC0BF0D8B00A
:1010E000CFD700019551D8B40DD096C093F097C0DA
:1010F00094F0931F941F934B942B93C090F094C043
:1011000091F0120096C090F097C091F01200175025
:10111000D8A414D08C68000E8B6E080E8B6E1D50F8
:10112000010D800EF324D96E000EF420DA6EDF502C
:101130008C6EA60EE82EFED700D0172A1704D8A46E
:1011400014D08C68000E8B6E040E8B6E1C50010D3B
:10115000800EF324D96E000EF420DA6EDF508C6E10
:10116000A60EE82EFED700D0172A020E1718D8A414
:1011700014D08C68000E8B6E020E8B6E1A50010D0F
:10118000800EF324D96E000EF420DA6EDF508C6EE0
:10119000A60EE82EFED700D0172A030E1718D8A4E3
:1011A00012008C68000E8B6E010E8B6E1950010DB3
:1011B000800EF324D96E000EF420DA6EDF508C6EB0
:1011C000A60EE82EFED700D0000E176E1200255096
:1011D000010D010EF324D96E000EF420DA6E000E1C
:1011E000DF6EABA414D02550010D010EF324D96E8F
:1011F000000EF420DA6EDF8201D809D00500FA6E05
:101200004550FD6E4650FE6EFF6AFA501200ABA2CA
:1012100014D02550010D010EF324D96E000EF420D8
:10122000DA6EDF8401D809D00500FA6E4350FD6EF6
:101230004450FE6EFF6AFA5012002550010D010E57
:10124000F324D96E000EF420DA6EDF50D8B40BD040
:1012500001D812000500FA6E4150FD6E4250FE6E3C
:10126000FF6AFA501200F9EC0AF01200000E406E0C
:101270002BEC0BF00009D8B4FBD731EC0AF0206E50
:101280003F0E2018D8B4F4D720C021F021C089FF28
:10129000370E2118D8A40ED040500001986F996BDA
:1012A00098C03AF099C03BF0010E3C6E100E3D6EB6
:1012B000B6EC0AF040500001986F996B9A6B98C099
:1012C00090F099C091F09AC092F002EC08F090C0B2
:1012D00013F091C014F0070E0001996F580E986F2B
:1012E000590EE82EFED7982FFCD7992FFAD700D0A9
:1012F00012009D9ACE0E3A6E110E3B6E3EEC0BF034
:101300009D989E0E3A6E150E3B6E39EC0BF0080E52
:10131000B86E900EAB6E240EAC6E190EAF6E000E52
:10132000B06EB40E3A6E160E3B6E48EC0BF0A40E87
:101330003A6E160E3B6E43EC0BF0AA0E3A6E160E8A
:101340003B6E4DEC0BF0000E226E000E276E000E71
:10135000266E100E4B6E000E256E000E246E000ED3
:10136000236E9D8A12002BEC0BF00009D8B4FBD73A
:1013700031EC0AF0206E3A0E2018D8B4F4D720C011
:101380001EF0320E99EC0AF01E38F00B186E183869
:101390000F0B196E1E503B6E3C6A0F0E3B12000E77
:1013A0003C12040E3D6E3C343C323B323D2EFBD7AA
:1013B0003B501A6E530EE82EFED700F01200460E78
:1013C000F66E160EF76E000EF86E00EE80F010EE60
:1013D00010F00900F5CFEEFFE550E150FAE1B60E4E
:1013E000F66E160EF76E000EF86E0900F5CF4CF093
:1013F00000EE60F0200EEE6AE806FDE100EE01F07E
:10140000270EEE6AE806FDE14D904D92000155EF82
:101410000AF02BEC0BF00009D8B4FBD731EC0AF042
:10142000206E3A0E2018D8B4F4D720C01FF0310E29
:1014300099EC0AF01F38F00B1B6E1B380F0B1C6E5B
:101440001F503B6E3C6A0F0E3B12000E3C12040E06
:101450003D6E3C343C323B323D2EFBD73B501D6E43
:101460001200000E3A6E2350D8B4FDD72450010D5F
:10147000010EF324D96E000EF420DA6EDF50226ED6
:101480002450010D600EF324D96E000EF420DA6EA4
:10149000DF503A6E242A0F0E246402D0000E246E10
:1014A0009D9A23069D8A3A5012001AEC0BF0F28E98
:1014B000F28C2BEC0BF00009D8B417D031EC0AF009
:1014C000206E3F0E2018D8A405D04C0E99EC0AF0DF
:1014D00036EC09F03A0E2018D8A407D0530E99EC38
:1014E0000AF009EC0AF0B3EC09F087EC08F0E1D758
:1014F000000E8D6E000E8C6E000E896E000E8A6ED0
:10150000000E8B6E070E966E000E926E9368B00EF4
:10151000946E000E956E0F013B693C0E3A6F3F0EC4
:10152000396F070E3C6F2F0E386F000E616EF18E13
:1015300012003A6E4B50D8B4FDD79DB803D03AC0D4
:10154000ADFF12D09D982750010D700EF324D96E77
:10155000000EF420DA6E3AC0DFFF272A0F0E276450
:1015600002D0000E276E4B069D8812003AC03EF056
:101570003BC03FF004D03E4A3F2A3C4A3D2A3CC093
:10158000F6FF3DC0F7FFF86A3EC0D9FF3FC0DAFF63
:101590000800F5CFDFFFDF50D8B41200ECD7100EF3
:1015A0004B6012D02650010D700EF324D96E000E40
:1015B000F420DA6EDF50AD6E262A0F0E266402D0BC
:1015C000000E266E4B2A12009D9812003A503C02E3
:1015D000F3CF3EF0F4CF3FF03A503D02F3503F26B8
:1015E0003B503C02F3503F263EC03AF03FC03BF038
:1015F00012002550010D600EF324D96E000EF42068
:10160000DA6EAECFDFFF252A0F0E256402D0000E62
:10161000256E232A12003C6E000E3B6E3A0E3C6093
:1016200005D02F0E3C6402D0010E3B6E3BC03AF059
:101630003A30120058EC0BF078EC0AF032EC0BF078
:1016400079EC09F01200C0F9A4B0999282F8809068
:101650008883C6A1868E2350D8B402D0010E120012
:10166000000E1200300ED36E040ED26E000E9B6E72
:1016700012003AC049F03BC04AF012003AC047F0AD
:101680003BC048F012003AC043F03BC044F01200A7
:101690003AC045F03BC046F012003AC041F03BC0B2
:1016A00042F01200AB98AB881200F9EC0AF012007D
:0716B000D09E12001200049D
:020000040020DA
:08000000FFFFFFFFFFFFFFFF00
:020000040030CA
:0E000000FF281F3CFFBF85FF0FC00FE00F4021
:00000001FF
