:0400000077EF00F0A6
:100008004E82FACF26F0FBCF27F0E9CF28F0EACFCF
:1000180029F0E1CF2AF0E2CF2BF0D9CF2CF0DACFBC
:100028002DF0F3CF2EF0F4CF2FF0F6CF30F0F7CF3E
:1000380031F0F8CF32F0F5CF33F04EC034F04FC086
:1000480035F050C036F051C037F0F2BAF2A403D000
:10005800AEEC02F022D0F2AC20D09DBC9EAC03D016
:100068005DEC03F01AD09DB89EA808D001D815D031
:100078000500FA6E4050FD6E41500AD09DBA9EAA06
:100088000CD001D80AD00500FA6E3E50FD6E3F50E4
:10009800FE6EF850FF6EFA50120037C051F036C0AD
:1000A80050F035C04FF034C04EF033C0F5FF32C0C9
:1000B800F8FF31C0F7FF30C0F6FF2FC0F4FF2EC0A5
:1000C800F3FF2DC0DAFF2CC0D9FF2BC0E2FF2AC0F6
:1000D800E1FF29C0EAFF28C0E9FF27C0FBFF26C0CF
:1000E800FAFF4E92110044EF02F0FBEC02F0F28EA0
:1000F800F28C020E2564FDD7000E256E000E00015D
:10010800816F000E806F5BEC03F026EC03F00009B2
:10011800D8B4FBD714EC03F080C011F081C012F002
:1001280011C019F012C01AF019C086F01AC087F071
:10013800030E0001896FE80E886F89EC01F0000159
:100148008651466E46C080F0816B030E836FE80EC1
:10015800826FC3EC02F00001801F811F804B812B4E
:1001680019508025866F1A508121876F000E896F7C
:10017800640E886F89EC01F000018651476E46C015
:1001880080F0816B030E836FE80E826FC3EC02F080
:100198004750640DF35000018027F4508123801FDD
:1001A800811F804B812B19508025866F1A50812121
:1001B800876F000E896F0A0E886F89EC01F00001C5
:1001C8008651486E19C080F01AC081F0000E836F06
:1001D8000A0E826F0BEC02F000018051496E000E8E
:1001E8001E6E000E1D6E1EBE06D01E5082E13D0E14
:1001F8001D5CD8B07ED7000E1C6E000E1B6E1CBE98
:1002080006D01C5028E1040E1B5CD8B024D04A0E3E
:100218001B24D96E000E1C20DA6EDF508A6E13D0B4
:10022800460E1B24D96E000E1C20DA6EDF5000012A
:100238008E6F8E51010D8F0EF324D96E000EF420AF
:10024800DA6EDF508B6E010E2564EAD7010E256E3B
:100258001B4A1C2AD4D71D4A1E2A1EBECCD71E50A4
:1002680001E1C5D746D72250010D010EF324D96EFE
:10027800000EF420DA6E000EDF6EABA415D022500B
:10028800010D010EF324D96E000EF420DA6EDF8220
:1002980001D80AD00500FA6E3C50FD6E3D50FE6E46
:1002A800F850FF6EFA501200ABA215D02250010D83
:1002B800010EF324D96E000EF420DA6EDF8401D823
:1002C8000AD00500FA6E3A50FD6E3B50FE6EF850AB
:1002D800FF6EFA5012002250010D010EF324D96E60
:1002E800000EF420DA6EDF50D8B40CD001D812001A
:1002F8000500FA6E3850FD6E3950FE6EF850FF6EEC
:10030800FA501200E9EC02F01200000E00018B6FA7
:1003180089AF06D0886D891FD8B0892B010E8B6FE5
:1003280087AF06D0866D871FD8B0872B010E8B1B31
:10033800000E8D6F000E8C6F88518911D8B41CD0B7
:10034800010E8A6F04D0D890883789378A2B89AFF5
:10035800FAD7D8908C378D378851865D895187595F
:10036800D8A005D08851865F8951875B8C81D89049
:10037800893388338A2FEDD78B51D8B404D08C6D4C
:100388008D1FD8B08D2B8CC086F08DC087F01200E1
:100398009D9A6E0E0001806F020E816F3BEC03F098
:1003A8009D982E0E0001806F050E816F36EC03F0CC
:1003B800080EB86E800EAB6E040EAC6E170EAF6EE4
:1003C800000EB06EC00E0001806F060E816F45EC06
:1003D80003F0A60E0001806F060E816F40EC03F05B
:1003E800AC0E0001806F060E816F4AEC03F0000E20
:1003F8001F6E000E246E000E236E100E446E000E4B
:10040800226E000E216E000E206E9D8A1200000ED4
:100418000001856F81AF06D0806D811FD8B0812B18
:10042800010E856F83AF04D0826D831FD8B0832BF4
:1004380082518311D8B418D0010E846F04D0D8909B
:1004480082378337842B83AFFAD78251805D8351FB
:100458008159D8A004D08251805F8351815BD890A4
:1004680083338233842FF1D78551D8B404D0806D7B
:10047800811FD8B0812B80C080F081C081F012002C
:10048800580EF66E060EF76E000EF86E00EE8FF040
:1004980010EE0AF00900F5CFEEFFE550E150FAE161
:1004A8009E0EF66E060EF76E000EF86E00EE46F023
:1004B80010EE08F00900F5CFEEFFE550E150FAE143
:1004C80000EE60F0200EEE6AE806FDE100EE01F0B5
:1004D800250EEE6AE806FDE14E904E92000EF86E8B
:1004E800000179EF00F0000E8D6E000E8C6E000E8C
:1004F800896E000E8A6E000E8B6E070E966E9268DD
:10050800F00E936E000E946E95680F013B69FC0E19
:100518003A6F3F0E396F070E3C6F2F0E386F000E83
:10052800616EF18E1200100E446012D02350010D3E
:10053800700EF324D96E000EF420DA6EDF50AD6E23
:10054800232A0F0E236402D0000E236E442A1200C1
:100558009D981200F29445C0D6FF42504310D8B47B
:100568000CD001D80AD00500FA6E4250FD6E4350F7
:10057800FE6EF850FF6EFA501200252A1200000194
:1005880080518203F3CF84F0F4CF85F08051830348
:10059800F350852781518203F350852784C080F06A
:1005A80085C081F01200000ED76EFE0ED66EFE0ECC
:1005B800456EF294F28ABE0E0001806F060E816FBE
:1005C80031EC03F0D70ED56E12002250010D600EEB
:1005D800F324D96E000EF420DA6EAECFDFFF222AA4
:1005E8000F0E226402D0000E226E202A120059EC4F
:1005F80003F077EC02F01FEC03F008EC03F0D7EC03
:1006080002F0CCEC01F01200010EC26E000EC16EB9
:10061800880EC06E000EC36E000EC46E9D8C120054
:10062800C4500001836F826BC3508225806F000E17
:100638008321816F1200300ED36E040ED26E000E2D
:100648009B6E1200C2B202D0010E1200000E120000
:10065800C0F9A4B0999282F8809080C042F081C01D
:1006680043F0120080C040F081C041F0120080C009
:100678003EF081C03FF0120080C03AF081C03BF0EC
:10068800120080C03CF081C03DF0120080C038F0FC
:1006980081C039F012000001020308040201AB987E
:1006A800AB881200E9EC02F01200D09E1200C28260
:0A06B80012009E9C120012001200B6
:020000040020DA
:08000000FFFFFFFFFFFFFFFF00
:020000040030CA
:0E000000FF281F3CFFBF85FF0FC00FE00F4021
:00000001FF
