:040000006BEF00F0B2
:100008005782FACF3AF0FBCF3BF0E9CF3CF0EACF8A
:100018003DF0E1CF3EF0E2CF3FF0D9CF40F0DACF6C
:1000280041F0F3CF42F0F4CF43F0F6CF44F0F7CFEE
:1000380045F0F8CF46F0F5CF47F057C048F058C024
:1000480049F059C04AF05AC04BF0F2AC1AD09DB8EA
:100058009EA808D001D815D00500FA6E5450FD6E40
:1000680055500AD09DBA9EAA0CD001D80AD00500D6
:10007800FA6E5250FD6E5350FE6EF850FF6EFA50F5
:1000880012004BC05AF04AC059F049C058F048C055
:1000980057F047C0F5FF46C0F8FF45C0F7FF44C01A
:1000A800F6FF43C0F4FF42C0F3FF41C0DAFF40C08F
:1000B800D9FF3FC0E2FF3EC0E1FF3DC0EAFF3CC0C0
:1000C800E9FF3BC0FBFF3AC0FAFF579211004DEF22
:1000D80002F060D0070E0001816F7D0EE82EFED77A
:1000E800812FFCD7E9EC02F00009D8B415D027EC31
:1000F80002F0326E3F0E3218D8B4120032C033F01C
:1001080033C089FF891E530EE82EFED700F0000E7B
:10011800286E000E276E1200000E286E010E276E44
:100128001200050E0001816FDD0EE82EFED7812F2B
:10013800FCD700D0E9EC02F00009D8B4120027EC93
:1001480002F0326E3A0E3218D8B41200230424108A
:10015800D8A40FD032C030F0530EE82EFED700F0EE
:10016800000E246E000E236E000E286E000E276E01
:10017800120023502410D8A4120032C031F0530EBC
:10018800E82EFED700F0234A242A000E286E000E1F
:10019800276E120027C081F028C082F0000182512A
:1001A800000AD8A412008151010AD8B493D7030ACF
:1001B800D8A41200B6D72950D8A414D08C68000E41
:1001C8008B6E080E8B6E2F50010D700EF324D96EB6
:1001D800000EF420DA6EDF508C6EA60EE82EFED7E5
:1001E80000D0292A2904D8A414D08C68000E8B6E5C
:1001F800040E8B6E2E50010D700EF324D96E000E76
:10020800F420DA6EDF508C6EA60EE82EFED700D0F2
:10021800292A020E2918D8A414D08C68000E8B6ED7
:10022800020E8B6E2C50010D700EF324D96E000E49
:10023800F420DA6EDF508C6EA60EE82EFED700D0C2
:10024800292A030E2918D8A412008C68000E8B6E78
:10025800010E8B6E2B50010D700EF324D96E000E1B
:10026800F420DA6EDF508C6EA60EE82EFED700D092
:10027800000E296E12003750010D010EF324D96EBD
:10028800000EF420DA6E000EDF6EABA415D03750E6
:10029800010D010EF324D96E000EF420DA6EDF8210
:1002A80001D80AD00500FA6E5050FD6E5150FE6E0E
:1002B800F850FF6EFA501200ABA215D03750010D5E
:1002C800010EF324D96E000EF420DA6EDF8401D813
:1002D8000AD00500FA6E4E50FD6E4F50FE6EF85073
:1002E800FF6EFA5012003750010D010EF324D96E3B
:1002F800000EF420DA6EDF50D8B40CD001D812000A
:100308000500FA6E4C50FD6E4D50FE6EF850FF6EB3
:10031800FA501200C6EC02F012009D9A7E0E0001FF
:10032800806F020E816FFCEC02F09D985E0E00015A
:10033800806F050E816FF7EC02F0080EB86E900E14
:10034800AB6E240EAC6E190EAF6E000EB06E300E92
:100358000001806F060E816F06EC03F0200E00018D
:10036800806F060E816F01EC03F0260E0001806F8E
:10037800060E816F0BEC03F0000E346E000E396E22
:10038800000E386E100E566E000E376E000E366E6A
:10039800000E356E9D8A12003138F00B2D6E2D3807
:1003A8000F0B2E6E31500001806F816B0F0E801382
:1003B800000E8113040E826F813581338033822FC2
:1003C800FBD780512F6E3038F00B2A6E2A380F0B6E
:1003D8002B6E3050806F816B0F0E8013000E8113CF
:1003E800040E826F813581338033822FFBD7805191
:1003F8002C6E1200D8EC02F0F28EF28C6DEC00F04C
:10040800D0EC01F0DFEC00F0E9EC02F00009D8B420
:10041800F5D727EC02F0326E3F0E3218D8A407D079
:100428004C0E91EC02F0000E286E010E276E3A0E6B
:100438003218D8A4E3D7530E91EC02F0000E286EC0
:10044800020E276EDBD7000E0001806F3550D8B43E
:10045800FDD73650010D010EF324D96E000EF4209D
:10046800DA6EDF50346E3650010D600EF324D96E0B
:10047800000EF420DA6EDF500001806F362A0F0E6E
:10048800366402D0000E366E9D9A35069D8A8051DC
:100498001200C20EF66E050EF76E000EF86E00EE34
:1004A80070F010EE10F00900F5CFEEFFE550E150C6
:1004B800FAE100EE60F0100EEE6AE806FDE100EEEB
:1004C80001F0390EEE6AE806FDE157905792000EEA
:1004D800F86E0001FEEF01F0000E8D6E000E8C6EBE
:1004E800000E896E000E8A6E000E8B6E070E966ED9
:1004F800000E926E9368B00E946E000E956E0F010A
:100508003B693C0E3A6F3F0E396F070E3C6F2F0E5A
:10051800386F000E616EF18E12000001806F565028
:10052800D8B4FDD79DB803D080C0ADFF12D09D9838
:100538003950010D110EF324D96E000EF420DA6E35
:1005480080C0DFFF392A0F0E396402D0000E396EE1
:1005580056069D881200100E566012D03850010DB4
:10056800110EF324D96E000EF420DA6EDF50AD6E52
:10057800382A0F0E386402D0000E386E562A120040
:100588009D9812003750010D600EF324D96E000EAD
:10059800F420DA6EAECFDFFF372A0F0E376402D0B1
:1005A800000E376E352A120016EC03F070EC02F0DC
:1005B800F0EC02F091EC01F01200C0F9A4B09992AD
:1005C80082F880908883C6A1868E3550D8B402D030
:1005D800010E1200000E1200300ED36E040ED26E01
:1005E800000E9B6E120080C054F081C055F01200BE
:1005F80080C052F081C053F0120080C04EF081C01C
:100608004FF0120080C050F081C051F0120080C03D
:100618004CF081C04DF01200AB98AB881200C6ECCC
:0A06280002F01200D09E1200120032
:020000040020DA
:08000000FFFFFFFFFFFFFFFF00
:020000040030CA
:0E000000FF281F3CFFBF85FF0FC00FE00F4021
:00000001FF
