:0400000054EF00F0C9
:100008004D82FACF01F0FBCF02F0E9CF03F0EACF3F
:1000180004F0E1CF05F0E2CF06F0D9CF07F0DACF50
:1000280008F0F3CF09F0F4CF0AF0F6CF0BF0F7CFD2
:100038000CF0F8CF0DF0F5CF0EF04DC00FF04EC01C
:1000480010F04FC011F050C012F0F2BAF2A402D072
:10005800F5EC01F012C050F011C04FF010C04EF096
:100068000FC04DF00EC0F5FF0DC0F8FF0CC0F7FF34
:100078000BC0F6FF0AC0F4FF09C0F3FF08C0DAFF9F
:1000880007C0D9FF06C0E2FF05C0E1FF04C0EAFFD0
:1000980003C0E9FF02C0FBFF01C0FAFF4D92110047
:1000A800D8EF01F01CEC02F0F28EF28C35BEFED7D0
:1000B800355004E1030E345CD8A0F8D7000E356E35
:1000C800000E346E000E146E000E136E59EC02F022
:1000D8004CEC02F00009D8B4FBD732EC02F013C0A4
:1000E80032F014C033F032C01AF033C01BF0000EE7
:1000F8001D6E0A0E1C6E96EC01F01AC024F01BC08F
:1001080025F0000E166E0A0E156E32C013F033C0BD
:1001180014F06DEC01F013C01AF014C01BF0000EBF
:100128001D6E0A0E1C6E96EC01F01AC022F01BC060
:1001380023F0000E166E640E156E32C013F033C035
:1001480014F06DEC01F013C01AF014C01BF0000E8F
:100158001D6E0A0E1C6E96EC01F01AC020F01BC032
:1001680021F032C013F033C014F0030E166EE80EFF
:10017800156E6DEC01F013C01EF014C01FF0040ED4
:1001880036183710D8A404D0000E376E000E366E1D
:1001980036503710D8A423D0D8903634D96E373497
:1001A800DA6E1E0ED926000EDA22DECF61F0DDCF20
:1001B80062F0380E00016125D96E000E6221DA6EF8
:1001C800DF508A6E36C061F0010E626F612B02D07B
:1001D800D8906237612FFCD7000162518B6E3604CC
:1001E8003710D8A423D0D8903634D96E3734DA6E85
:1001F8001E0ED926000EDA22DECF61F0DDCF62F0C6
:10020800380E00016125D96E000E6221DA6EDF50CA
:100218008A6E36C061F0010E626F612B02D0D890F1
:100228006237612FFCD7000162518B6E020E3618BF
:100238003710D8A423D0D8903634D96E3734DA6E34
:100248001E0ED926000EDA22DECF61F0DDCF62F075
:10025800380E00016125D96E000E6221DA6EDF507A
:100268008A6E36C061F0010E626F612B02D0D890A1
:100278006237612FFCD7000162518B6E030E36186E
:100288003710D8A423D0D8903634D96E3734DA6EE4
:100298001E0ED926000EDA22DECF61F0DDCF62F025
:1002A800380E00016125D96E000E6221DA6EDF502A
:1002B8008A6E36C061F0010E626F612B02D0D89051
:1002C8006237612FFCD7000162518B6E364A372A9C
:1002D800EDD6000E186E000E176E15501610D8B415
:1002E8001CD0010E196E04D0D89015361636192A6E
:1002F80016AEFAD7D890173618361550135C165024
:100308001458D8A005D01550135E1650145A1780EB
:10031800D89016321532192EEDD717C013F018C021
:1003280014F012001C501D10D8B419D0010E000191
:10033800606F04D0D8901C361D36602B1DAEFAD7DE
:100348001C501A5C1D501B58D8A004D01C501A5EB3
:100358001D501B5AD8901D321C32602FF1D71AC07D
:100368001AF01BC01BF01200000E8D6E000E8C6E72
:10037800000E896E000E8A6E000E8B6E070E966E4A
:100388009268000E936EF00E946E95680F013B69AB
:10039800FC0E3A6F3F0E396F070E3C6F2F0E386F09
:1003A800000E616EF18E1200780EF66E040EF76E76
:1003B800000EF86E00EE38F010EE12F00900F5CFDE
:1003C800EEFFE550E150FAE100EE1EF01A0EEE6A7B
:1003D800E806FDE14D904D92000EF86E000156EFD3
:1003E80000F0F2944CC0D6FF4A504B10D8B40CD051
:1003F80001D80AD00500FA6E4A50FD6E4B50FE6EC9
:10040800F850FF6EFA501200344A352A1200000ED6
:10041800D76EFE0ED66EFE0E4C6EF294F28AB60EB3
:10042800136E040E146E52EC02F0D70ED56E120045
:1004380057EC02F0B8EC01F045EC02F027EC02F0C2
:100448000BEC02F01200010EC26E000EC16E880E97
:10045800C06E000EC36E000EC46E1200C450166E3D
:10046800156AC3501524136E000E1620146E120060
:10047800C0F9A4B0999282F88090000102030804A0
:100488000201300ED36E040ED26E800E9B6E1200E7
:10049800C2B202D0010E1200000E120013C04AF0C0
:1004A80014C04BF01200D09E1200C282120012003B
:020000040020DA
:08000000FFFFFFFFFFFFFFFF00
:020000040030CA
:0E000000FF281F3CFFBF85FF0FC00FE00F4021
:00000001FF
