:040000006BEF00F0B2
:100008004D82FACF30F0FBCF31F0E9CF32F0EACFB2
:1000180033F0E1CF34F0E2CF35F0D9CF36F0DACF94
:1000280037F0F3CF38F0F4CF39F0F6CF3AF0F7CF16
:100038003BF0F8CF3CF0F5CF3DF04DC03EF04EC060
:100048003FF04FC040F050C041F0F2AC1AD09DB81C
:100058009EA808D001D815D00500FA6E4A50FD6E4A
:100068004B500AD09DBA9EAA0CD001D80AD00500E0
:10007800FA6E4850FD6E4950FE6EF850FF6EFA5009
:10008800120041C050F040C04FF03FC04EF03EC09B
:100098004DF03DC0F5FF3CC0F8FF3BC0F7FF3AC04C
:1000A800F6FF39C0F4FF38C0F3FF37C0DAFF36C0B7
:1000B800D9FF35C0E2FF34C0E1FF33C0EAFF32C0E8
:1000C800E9FF31C0FBFF30C0FAFF4D9211003EEF4F
:1000D80002F003D00001764B772B76C0D9FF77C0AA
:1000E800DAFF200EDE18D8B4F5D776C0D9FF77C06E
:1000F800DAFF090EDE18D8B4EDD7000E00017C6FC8
:10010800000E7B6F000E7A6F76C0D9FF77C0DAFFDA
:100118002D0EDE18D8A402D07A2B26D076C0D9FFAF
:1001280077C0DAFF2B0EDE18D8A420D01DD07BC0F4
:1001380070F07CC071F0000E0001736F0A0E726FD0
:100148002AEC02F076C0D9FF77C0DAFFDF50000151
:10015800786F796B7051782771517923D00E782593
:100168007B6FFF0E79217C6F764B772B76C0D9FF9A
:1001780077C0DAFFDF5063EC02F0D8B0D8D70001BF
:100188007A51D8B40DD07BC078F07CC079F0781F54
:10019800791F784B792B78C076F079C077F0120008
:1001A8007BC076F07CC077F012002A50010D010E5A
:1001B800F324D96E000EF420DA6E000EDF6EABA4C5
:1001C80015D02A50010D010EF324D96E000EF4202B
:1001D800DA6EDF8201D80AD00500FA6E4650FD6E4D
:1001E8004750FE6EF850FF6EFA501200ABA215D0C1
:1001F8002A50010D010EF324D96E000EF420DA6E98
:10020800DF8401D80AD00500FA6E4450FD6E4550CF
:10021800FE6EF850FF6EFA5012002A50010D010EC2
:10022800F324D96E000EF420DA6EDF50D8B40CD067
:1002380001D812000500FA6E4250FD6E4350FE6E62
:10024800F850FF6EFA50120051EC02F0120074ECF4
:1002580002F0F28EF28C84EC02F00009D8B4FBD7DD
:10026800B4EC01F02D6E3F0E2D18D8B4F4D7000E63
:10027800246E000E236E24BE06D024500FE1020E19
:10028800235CD8B00BD02E0E2324D96E000E242068
:10029800DA6E2DC0DFFF234A242AEDD77D0E000138
:1002A800706F000E716F2E0E726F000E736FFBEC85
:1002B80001F07D0E0001766F000E776F6DEC00F097
:1002C80076C021F077C022F021C089FF891E530E25
:1002D800E82EFED700F0000E266E000E256E6BEF9E
:1002E80000F09D9AB20E0001706F010E716F90ECD4
:1002F80002F09D98260E0001706F040E716F8BEC52
:1003080002F0080EB86E900EAB6E240EAC6E190E8D
:10031800AF6E000EB06E580E0001706F050E716F53
:100328009AEC02F0480E0001706F050E716F95ECA3
:1003380002F04E0E0001706F050E716F9FEC02F017
:10034800000E276E000E2C6E000E2B6E100E4C6EDB
:10035800000E2A6E000E296E000E286E9D8A12006D
:10036800000E0001706F2850D8B4FDD72950010D38
:10037800010EF324D96E000EF420DA6EDF50276EDA
:100388002950010D600EF324D96E000EF420DA6EA8
:10039800DF500001706F292A0F0E296402D0000E69
:1003A800296E9D9A28069D8A70511200000E8D6E46
:1003B800000E8C6E000E896E000E8A6E000E8B6E1B
:1003C800070E966E000E926E9368B00E946E000E35
:1003D800956E0F013B693C0E3A6F3F0E396F070E61
:1003E8003C6F2F0E386F000E616EF18E120070C0D8
:1003F80074F071C075F005D00001744B752B724B09
:10040800732B72C0D9FF73C0DAFF74C0E1FF75C0E7
:10041800E2FFDFCFE7FFE750D8B41200EDD7100EA8
:100428004C6012D02B50010D110EF324D96E000E22
:10043800F420DA6EDF50AD6E2B2A0F0E2B6402D03B
:10044800000E2B6E4C2A12009D981200000170516C
:100458007203F3CF74F0F4CF75F070517303F35057
:10046800752771517203F350752774C070F075C009
:1004780071F0120000EE60F0100EEE6AE806FDE181
:1004880000EE01F02F0EEE6AE806FDE14D904D9268
:10049800000EF86E00012BEF01F02A50010D600EDE
:1004A800F324D96E000EF420DA6EAECFDFFF2A2ACD
:1004B8000F0E2A6402D0000E2A6E282A12000001AC
:1004C800726F000E0001716F3A0E726105D02F0E27
:1004D800726502D0010E716F71C070F07031120038
:1004E800AAEC02F0DAEC01F07DEC02F075EC01F018
:1004F8001200300ED36E040ED26E000E9B6E1200E8
:100508002850D8B402D0010E1200000E120070C09C
:100518004AF071C04BF0120070C048F071C049F049
:10052800120070C044F071C045F0120070C046F06F
:1005380071C047F0120070C042F071C043F0120061
:10054800AB98AB88120051EC02F01200D09E12005A
:0205580012008F
:020000040020DA
:08000000FFFFFFFFFFFFFFFF00
:020000040030CA
:0E000000FF281F3CFFBF85FF0FC00FE00F4021
:00000001FF
