:0400000054EF00F0C9
:100008004A82FACF01F0FBCF02F0E9CF03F0EACF42
:1000180004F0E1CF05F0E2CF06F0D9CF07F0DACF50
:1000280008F0F3CF09F0F4CF0AF0F6CF0BF0F7CFD2
:100038000CF0F8CF0DF0F5CF0EF04AC00FF04BC022
:1000480010F04CC011F04DC012F0F2BAF2A402D078
:1000580062EC02F012C04DF011C04CF010C04BF031
:100068000FC04AF00EC0F5FF0DC0F8FF0CC0F7FF37
:100078000BC0F6FF0AC0F4FF09C0F3FF08C0DAFF9F
:1000880007C0D9FF06C0E2FF05C0E1FF04C0EAFFD0
:1000980003C0E9FF02C0FBFF01C0FAFF4A9211004A
:1000A80045EF02F08DEC02F0F28EF28C020E33185E
:1000B8003410D8A4FBD7000E306E000E2F6E30BE61
:1000C80006D0100E2F5C270E3058D8B08ED02FC017
:1000D8001BF030C01CF0000E1E6E0A0E1D6EEDECFB
:1000E80001F01BC023F01CC024F0000E166E0A0E8F
:1000F800156E2FC013F030C014F0ABEC01F013C034
:100108001BF014C01CF0000E1E6E0A0E1D6EEDECE6
:1001180001F01BC025F01CC026F0000E166E640E00
:10012800156E2FC013F030C014F0ABEC01F013C003
:100138001BF014C01CF0000E1E6E0A0E1D6EEDECB6
:1001480001F01BC027F01CC028F02FC013F030C0EE
:1001580014F0030E166EE80E156EABEC01F013C02A
:1001680029F014C02AF0000E2E6E000E2D6E2EBE41
:1001780006D02E5037E1140E2D5CD8B033D0000EC7
:10018800386E000E376E38BE06D0385028E1040E9F
:10019800375CD8B024D0D8903734D96E3834DA6E7A
:1001A800230ED926000EDA22DECF21F0DDCF22F091
:1001B8003B0E2124D96E000E2220DA6EDF508A6EA3
:1001C80037C021F0010E226E212A02D0D8902236A3
:1001D800212EFCD722508B6E374A382AD4D72D4A85
:1001E8002E2AC5D72F4A302A6AD730BE06D03050BB
:1001F8002FE10A0E2F5CD8B02BD037043810D8A4C2
:1002080004D0000E386E000E376E37C021F0010E94
:10021800226E212A02D0D8902236212EFCD72250D5
:100228008B6ED8903734D96E3834DA6E230ED926CF
:10023800000EDA22DECF21F0DDCF22F03B0E2124A2
:10024800D96E000E2220DA6EDF508A6E374A382ABD
:1002580030BE3AD0305004E10B0E2F5CD8A034D019
:1002680030BE06D0305030E1640E2F5CD8B02CD0B0
:10027800020E37183810D8A404D0000E386E000EBD
:10028800376E37C021F0010E226E212A02D0D89095
:100298002236212EFCD722508B6ED8903734D96E57
:1002A8003834DA6E230ED926000EDA22DECF21F09A
:1002B800DDCF22F03B0E2124D96E000E2220DA6E0B
:1002C800DF508A6E374A382A30BE3AD0305004E1BF
:1002D800650E2F5CD8A034D030BE06D0E80E2F5C57
:1002E800030E3058D8B02CD0030E37183810D8A4C5
:1002F80004D0000E386E000E376E37C021F0010EA4
:10030800226E212A02D0D8902236212EFCD72250E4
:100318008B6ED8903734D96E3834DA6E230ED926DE
:10032800000EDA22DECF21F0DDCF22F03B0E2124B1
:10033800D96E000E2220DA6EDF508A6E374A382ACC
:100348002F4A302A000E346E000E336EAFD6000EE0
:10035800186E16AE06D0156C161ED8B0162A010EE9
:10036800186E14AE06D0136C141ED8B0142A010EE1
:10037800181A000E1A6E000E196E15501610D8B401
:100388001CD0010E176E04D0D89015361636172AD1
:1003980016AEFAD7D89019361A361550135C16507F
:1003A8001458D8A005D01550135E1650145A198049
:1003B800D89016321532172EEDD71850D8B404D06D
:1003C800196C1A1ED8B01A2A19C013F01AC014F0E2
:1003D8001200000E206E1CAE06D01B6C1C1ED8B07E
:1003E8001C2A010E206E1EAE04D01D6C1E1ED8B035
:1003F8001E2A1D501E10D8B418D0010E1F6E04D02E
:10040800D8901D361E361F2A1EAEFAD71D501B5C0B
:100418001E501C58D8A004D01D501B5E1E501C5ADC
:10042800D8901E321D321F2EF1D72050D8B404D0D8
:100438001B6C1C1ED8B01C2A1BC01BF01CC01CF057
:100448001200000E8D6E000E8C6E000E896E000E6E
:100458008A6E000E8B6E070E966E9268000E936E73
:10046800F00E946E95680F013B69FC0E3A6F3F0ED3
:10047800396F070E3C6F2F0E386F000E616EF18ECC
:1004880012003A0EF66E050EF76E000EF86E00EECC
:100498003BF010EE0CF00900F5CFEEFFE550E1500F
:1004A800FAE100EE23F0180EEE6AE806FDE14A9044
:1004B8004A92000EF86E000156EF00F0F29449C01F
:1004C800D6FF47504810D8B40CD001D80AD0050040
:1004D800FA6E4750FD6E4850FE6EF850FF6EFA50A7
:1004E8001200354A362A314A322A334A342A12004F
:1004F800000ED76E060ED66E060E496EF294F28A7C
:10050800540E136E050E146EA3EC02F0D00ED56EC9
:100518001200A8EC02F025EC02F096EC02F07CEC5C
:1005280002F01200300ED36E040ED26E000E9B6ED7
:100538001200C0F9A4B0999282F88090FF0013C00D
:0E05480047F014C048F01200D09E12001200BE
:020000040020DA
:08000000FFFFFFFFFFFFFFFF00
:020000040030CA
:0E000000FF281F3CFFBF85FF0FC00FE00F4021
:00000001FF
